{
  "address": "0x52fF21e7D8871ae53C68B3D56e7348C895A926F0",
  "abi": [
    {
      "anonymous": false,
      "inputs": [
        {
          "indexed": false,
          "internalType": "uint256",
          "name": "id",
          "type": "uint256"
        }
      ],
      "name": "VotingCreated",
      "type": "event"
    },
    {
      "inputs": [
        {
          "internalType": "uint256",
          "name": "",
          "type": "uint256"
        }
      ],
      "name": "Votings",
      "outputs": [
        {
          "internalType": "address",
          "name": "",
          "type": "address"
        }
      ],
      "stateMutability": "view",
      "type": "function"
    },
    {
      "inputs": [
        {
          "internalType": "string[]",
          "name": "_name",
          "type": "string[]"
        },
        {
          "internalType": "string[][]",
          "name": "_candidates",
          "type": "string[][]"
        }
      ],
      "name": "createVoting",
      "outputs": [
        {
          "internalType": "uint256",
          "name": "id",
          "type": "uint256"
        }
      ],
      "stateMutability": "nonpayable",
      "type": "function"
    },
    {
      "inputs": [],
      "name": "votingId",
      "outputs": [
        {
          "internalType": "uint256",
          "name": "",
          "type": "uint256"
        }
      ],
      "stateMutability": "view",
      "type": "function"
    }
  ],
  "transactionHash": "0x3609dcbffdbfdf333518068dc53a688d62f537c063a00d92e03f281b9813e973",
  "args": [],
  "numDeployments": 1,
  "solcInputHash": "59c31d07b1f31c885b0a663120adc4ab",
  "bytecode": "0x60806040526000805534801561001457600080fd5b5061278f806100246000396000f3fe60806040523480156200001157600080fd5b5060043610620000465760003560e01c80631c6a31e0146200004b5780637865084b146200006d578063a32cf99014620000a3575b600080fd5b62000055620000d9565b60405162000064919062000228565b60405180910390f35b6200008b6004803603810190620000859190620005ae565b620000df565b6040516200009a919062000228565b60405180910390f35b620000c16004803603810190620000bb919062000664565b620001cc565b604051620000d09190620006db565b60405180910390f35b60005481565b6000808383604051620000f290620001ff565b620000ff929190620009b3565b604051809103906000f0801580156200011c573d6000803e3d6000fd5b50905080600160008054815260200190815260200160002060006101000a81548173ffffffffffffffffffffffffffffffffffffffff021916908373ffffffffffffffffffffffffffffffffffffffff160217905550600080815480929190620001869062000a1d565b9190505591507f3205be6c9f54a5e02a1ee7ed665ab460898cce94d5976b5937f48ec19682036d82604051620001bd919062000228565b60405180910390a15092915050565b60016020528060005260406000206000915054906101000a900473ffffffffffffffffffffffffffffffffffffffff1681565b611cef8062000a6b83390190565b6000819050919050565b62000222816200020d565b82525050565b60006020820190506200023f600083018462000217565b92915050565b6000604051905090565b600080fd5b600080fd5b600080fd5b6000601f19601f8301169050919050565b7f4e487b7100000000000000000000000000000000000000000000000000000000600052604160045260246000fd5b620002a9826200025e565b810181811067ffffffffffffffff82111715620002cb57620002ca6200026f565b5b80604052505050565b6000620002e062000245565b9050620002ee82826200029e565b919050565b600067ffffffffffffffff8211156200031157620003106200026f565b5b602082029050602081019050919050565b600080fd5b600080fd5b600067ffffffffffffffff8211156200034a57620003496200026f565b5b62000355826200025e565b9050602081019050919050565b82818337600083830152505050565b60006200038862000382846200032c565b620002d4565b905082815260208101848484011115620003a757620003a662000327565b5b620003b484828562000362565b509392505050565b600082601f830112620003d457620003d362000259565b5b8135620003e684826020860162000371565b91505092915050565b6000620004066200040084620002f3565b620002d4565b905080838252602082019050602084028301858111156200042c576200042b62000322565b5b835b818110156200047a57803567ffffffffffffffff81111562000455576200045462000259565b5b808601620004648982620003bc565b855260208501945050506020810190506200042e565b5050509392505050565b600082601f8301126200049c576200049b62000259565b5b8135620004ae848260208601620003ef565b91505092915050565b600067ffffffffffffffff821115620004d557620004d46200026f565b5b602082029050602081019050919050565b6000620004fd620004f784620004b7565b620002d4565b9050808382526020820190506020840283018581111562000523576200052262000322565b5b835b818110156200057157803567ffffffffffffffff8111156200054c576200054b62000259565b5b8086016200055b898262000484565b8552602085019450505060208101905062000525565b5050509392505050565b600082601f83011262000593576200059262000259565b5b8135620005a5848260208601620004e6565b91505092915050565b60008060408385031215620005c857620005c76200024f565b5b600083013567ffffffffffffffff811115620005e957620005e862000254565b5b620005f78582860162000484565b925050602083013567ffffffffffffffff8111156200061b576200061a62000254565b5b62000629858286016200057b565b9150509250929050565b6200063e816200020d565b81146200064a57600080fd5b50565b6000813590506200065e8162000633565b92915050565b6000602082840312156200067d576200067c6200024f565b5b60006200068d848285016200064d565b91505092915050565b600073ffffffffffffffffffffffffffffffffffffffff82169050919050565b6000620006c38262000696565b9050919050565b620006d581620006b6565b82525050565b6000602082019050620006f26000830184620006ca565b92915050565b600081519050919050565b600082825260208201905092915050565b6000819050602082019050919050565b600081519050919050565b600082825260208201905092915050565b60005b838110156200076057808201518184015260208101905062000743565b60008484015250505050565b6000620007798262000724565b6200078581856200072f565b93506200079781856020860162000740565b620007a2816200025e565b840191505092915050565b6000620007bb83836200076c565b905092915050565b6000602082019050919050565b6000620007dd82620006f8565b620007e9818562000703565b935083602082028501620007fd8562000714565b8060005b858110156200083f57848403895281516200081d8582620007ad565b94506200082a83620007c3565b925060208a0199505060018101905062000801565b50829750879550505050505092915050565b600081519050919050565b600082825260208201905092915050565b6000819050602082019050919050565b600082825260208201905092915050565b60006200089b82620006f8565b620008a781856200087d565b935083602082028501620008bb8562000714565b8060005b85811015620008fd5784840389528151620008db8582620007ad565b9450620008e883620007c3565b925060208a01995050600181019050620008bf565b50829750879550505050505092915050565b60006200091d83836200088e565b905092915050565b6000602082019050919050565b60006200093f8262000851565b6200094b81856200085c565b9350836020820285016200095f856200086d565b8060005b85811015620009a157848403895281516200097f85826200090f565b94506200098c8362000925565b925060208a0199505060018101905062000963565b50829750879550505050505092915050565b60006040820190508181036000830152620009cf8185620007d0565b90508181036020830152620009e5818462000932565b90509392505050565b7f4e487b7100000000000000000000000000000000000000000000000000000000600052601160045260246000fd5b600062000a2a826200020d565b91507fffffffffffffffffffffffffffffffffffffffffffffffffffffffffffffffff820362000a5f5762000a5e620009ee565b5b60018201905091905056fe608060405260006004553480156200001657600080fd5b5060405162001cef38038062001cef83398181016040528101906200003c9190620005bb565b600081511162000083576040517f08c379a00000000000000000000000000000000000000000000000000000000081526004016200007a90620006c7565b60405180910390fd5b816000815181106200009a5762000099620006e9565b5b602002602001015160009081620000b2919062000963565b5081600181518110620000ca57620000c9620006e9565b5b602002602001015160019081620000e2919062000963565b5060005b81518110156200018e57620001788282815181106200010a5762000109620006e9565b5b6020026020010151600081518110620001285762000127620006e9565b5b6020026020010151838381518110620001465762000145620006e9565b5b6020026020010151600181518110620001645762000163620006e9565b5b60200260200101516200019760201b60201c565b8080620001859062000a79565b915050620000e6565b50505062000ac6565b604051806080016040528060045481526020018381526020018281526020016000815250600260006004548152602001908152602001600020600082015181600001556020820151816001019081620001f1919062000963565b50604082015181600201908162000209919062000963565b5060608201518160030155905050600460008154809291906200022c9062000a79565b91905055505050565b6000604051905090565b600080fd5b600080fd5b600080fd5b6000601f19601f8301169050919050565b7f4e487b7100000000000000000000000000000000000000000000000000000000600052604160045260246000fd5b62000299826200024e565b810181811067ffffffffffffffff82111715620002bb57620002ba6200025f565b5b80604052505050565b6000620002d062000235565b9050620002de82826200028e565b919050565b600067ffffffffffffffff8211156200030157620003006200025f565b5b602082029050602081019050919050565b600080fd5b600080fd5b600067ffffffffffffffff8211156200033a57620003396200025f565b5b62000345826200024e565b9050602081019050919050565b60005b838110156200037257808201518184015260208101905062000355565b60008484015250505050565b6000620003956200038f846200031c565b620002c4565b905082815260208101848484011115620003b457620003b362000317565b5b620003c184828562000352565b509392505050565b600082601f830112620003e157620003e062000249565b5b8151620003f38482602086016200037e565b91505092915050565b6000620004136200040d84620002e3565b620002c4565b9050808382526020820190506020840283018581111562000439576200043862000312565b5b835b818110156200048757805167ffffffffffffffff81111562000462576200046162000249565b5b808601620004718982620003c9565b855260208501945050506020810190506200043b565b5050509392505050565b600082601f830112620004a957620004a862000249565b5b8151620004bb848260208601620003fc565b91505092915050565b600067ffffffffffffffff821115620004e257620004e16200025f565b5b602082029050602081019050919050565b60006200050a6200050484620004c4565b620002c4565b9050808382526020820190506020840283018581111562000530576200052f62000312565b5b835b818110156200057e57805167ffffffffffffffff81111562000559576200055862000249565b5b80860162000568898262000491565b8552602085019450505060208101905062000532565b5050509392505050565b600082601f830112620005a0576200059f62000249565b5b8151620005b2848260208601620004f3565b91505092915050565b60008060408385031215620005d557620005d46200023f565b5b600083015167ffffffffffffffff811115620005f657620005f562000244565b5b620006048582860162000491565b925050602083015167ffffffffffffffff81111562000628576200062762000244565b5b620006368582860162000588565b9150509250929050565b600082825260208201905092915050565b7f54686572652073686f756c64206265206174206c6561737420312063616e646960008201527f6461746500000000000000000000000000000000000000000000000000000000602082015250565b6000620006af60248362000640565b9150620006bc8262000651565b604082019050919050565b60006020820190508181036000830152620006e281620006a0565b9050919050565b7f4e487b7100000000000000000000000000000000000000000000000000000000600052603260045260246000fd5b600081519050919050565b7f4e487b7100000000000000000000000000000000000000000000000000000000600052602260045260246000fd5b600060028204905060018216806200076b57607f821691505b60208210810362000781576200078062000723565b5b50919050565b60008190508160005260206000209050919050565b60006020601f8301049050919050565b600082821b905092915050565b600060088302620007eb7fffffffffffffffffffffffffffffffffffffffffffffffffffffffffffffffff82620007ac565b620007f78683620007ac565b95508019841693508086168417925050509392505050565b6000819050919050565b6000819050919050565b6000620008446200083e62000838846200080f565b62000819565b6200080f565b9050919050565b6000819050919050565b620008608362000823565b620008786200086f826200084b565b848454620007b9565b825550505050565b600090565b6200088f62000880565b6200089c81848462000855565b505050565b5b81811015620008c457620008b860008262000885565b600181019050620008a2565b5050565b601f8211156200091357620008dd8162000787565b620008e8846200079c565b81016020851015620008f8578190505b6200091062000907856200079c565b830182620008a1565b50505b505050565b600082821c905092915050565b6000620009386000198460080262000918565b1980831691505092915050565b600062000953838362000925565b9150826002028217905092915050565b6200096e8262000718565b67ffffffffffffffff8111156200098a57620009896200025f565b5b62000996825462000752565b620009a3828285620008c8565b600060209050601f831160018114620009db5760008415620009c6578287015190505b620009d2858262000945565b86555062000a42565b601f198416620009eb8662000787565b60005b8281101562000a1557848901518255600182019150602085019450602081019050620009ee565b8683101562000a35578489015162000a31601f89168262000925565b8355505b6001600288020188555050505b505050505050565b7f4e487b7100000000000000000000000000000000000000000000000000000000600052601160045260246000fd5b600062000a86826200080f565b91507fffffffffffffffffffffffffffffffffffffffffffffffffffffffffffffffff820362000abb5762000aba62000a4a565b5b600182019050919050565b6112198062000ad66000396000f3fe608060405234801561001057600080fd5b506004361061009e5760003560e01c806335b8e8201161006657806335b8e8201461014e5780637284e4161461018157806378e3ef201461019f57806394bec071146101cf578063a3ec138d146101ef5761009e565b80630121b93f146100a357806306fdde03146100bf57806319c0c51a146100dd5780632d35a8a2146100fd5780633477ee2e1461011b575b600080fd5b6100bd60048036038101906100b89190610cbc565b61021f565b005b6100c7610384565b6040516100d49190610d79565b60405180910390f35b6100e5610412565b6040516100f493929190610daa565b60405180910390f35b610105610540565b6040516101129190610def565b60405180910390f35b61013560048036038101906101309190610cbc565b610546565b6040516101459493929190610e0a565b60405180910390f35b61016860048036038101906101639190610cbc565b610686565b6040516101789493929190610e0a565b60405180910390f35b61018961085c565b6040516101969190610d79565b60405180910390f35b6101b960048036038101906101b49190610ebb565b6108ea565b6040516101c69190610d79565b60405180910390f35b6101d7610a28565b6040516101e693929190610ee8565b60405180910390f35b61020960048036038101906102049190610ebb565b610c61565b6040516102169190610f41565b60405180910390f35b600360003373ffffffffffffffffffffffffffffffffffffffff1673ffffffffffffffffffffffffffffffffffffffff16815260200190815260200160002060009054906101000a900460ff16156102ac576040517f08c379a00000000000000000000000000000000000000000000000000000000081526004016102a390610fa8565b60405180910390fd5b600454811080156102be575060008110155b6102fd576040517f08c379a00000000000000000000000000000000000000000000000000000000081526004016102f490611014565b60405180910390fd5b6001600360003373ffffffffffffffffffffffffffffffffffffffff1673ffffffffffffffffffffffffffffffffffffffff16815260200190815260200160002060006101000a81548160ff02191690831515021790555060026000828152602001908152602001600020600301600081548092919061037c90611063565b919050555050565b60008054610391906110da565b80601f01602080910402602001604051908101604052809291908181526020018280546103bd906110da565b801561040a5780601f106103df5761010080835404028352916020019161040a565b820191906000526020600020905b8154815290600101906020018083116103ed57829003601f168201915b505050505081565b6060806000806001600454828054610429906110da565b80601f0160208091040260200160405190810160405280929190818152602001828054610455906110da565b80156104a25780601f10610477576101008083540402835291602001916104a2565b820191906000526020600020905b81548152906001019060200180831161048557829003601f168201915b505050505092508180546104b5906110da565b80601f01602080910402602001604051908101604052809291908181526020018280546104e1906110da565b801561052e5780601f106105035761010080835404028352916020019161052e565b820191906000526020600020905b81548152906001019060200180831161051157829003601f168201915b50505050509150925092509250909192565b60045481565b600260205280600052604060002060009150905080600001549080600101805461056f906110da565b80601f016020809104026020016040519081016040528092919081815260200182805461059b906110da565b80156105e85780601f106105bd576101008083540402835291602001916105e8565b820191906000526020600020905b8154815290600101906020018083116105cb57829003601f168201915b5050505050908060020180546105fd906110da565b80601f0160208091040260200160405190810160405280929190818152602001828054610629906110da565b80156106765780601f1061064b57610100808354040283529160200191610676565b820191906000526020600020905b81548152906001019060200180831161065957829003601f168201915b5050505050908060030154905084565b600060608060006004548510801561069f575060008510155b6106de576040517f08c379a00000000000000000000000000000000000000000000000000000000081526004016106d590611014565b60405180910390fd5b60006002600087815260200190815260200160002060405180608001604052908160008201548152602001600182018054610718906110da565b80601f0160208091040260200160405190810160405280929190818152602001828054610744906110da565b80156107915780601f1061076657610100808354040283529160200191610791565b820191906000526020600020905b81548152906001019060200180831161077457829003601f168201915b505050505081526020016002820180546107aa906110da565b80601f01602080910402602001604051908101604052809291908181526020018280546107d6906110da565b80156108235780601f106107f857610100808354040283529160200191610823565b820191906000526020600020905b81548152906001019060200180831161080657829003601f168201915b50505050508152602001600382015481525050905080600001518160200151826040015183606001519450945094509450509193509193565b60018054610869906110da565b80601f0160208091040260200160405190810160405280929190818152602001828054610895906110da565b80156108e25780601f106108b7576101008083540402835291602001916108e2565b820191906000526020600020905b8154815290600101906020018083116108c557829003601f168201915b505050505081565b6060600073ffffffffffffffffffffffffffffffffffffffff168273ffffffffffffffffffffffffffffffffffffffff160361095b576040517f08c379a000000000000000000000000000000000000000000000000000000000815260040161095290611157565b60405180910390fd5b600360008373ffffffffffffffffffffffffffffffffffffffff1673ffffffffffffffffffffffffffffffffffffffff16815260200190815260200160002060009054906101000a900460ff16156109ea576040518060400160405280600d81526020017f416c726561647920766f746564000000000000000000000000000000000000008152509050610a23565b6040518060400160405280600d81526020017f4e6f7420766f746564207965740000000000000000000000000000000000000081525090505b919050565b6000606060008060045411610a72576040517f08c379a0000000000000000000000000000000000000000000000000000000008152600401610a69906111c3565b60405180910390fd5b60008080600090505b600454811015610ae9578260026000838152602001908152602001600020600301541115610ad65760026000828152602001908152602001600020600301549250600260008281526020019081526020016000206000015491505b8080610ae190611063565b915050610a7b565b5060006002600083815260200190815260200160002060405180608001604052908160008201548152602001600182018054610b24906110da565b80601f0160208091040260200160405190810160405280929190818152602001828054610b50906110da565b8015610b9d5780601f10610b7257610100808354040283529160200191610b9d565b820191906000526020600020905b815481529060010190602001808311610b8057829003601f168201915b50505050508152602001600282018054610bb6906110da565b80601f0160208091040260200160405190810160405280929190818152602001828054610be2906110da565b8015610c2f5780601f10610c0457610100808354040283529160200191610c2f565b820191906000526020600020905b815481529060010190602001808311610c1257829003601f168201915b505050505081526020016003820154815250509050806000015181602001518260600151955095509550505050909192565b60036020528060005260406000206000915054906101000a900460ff1681565b600080fd5b6000819050919050565b610c9981610c86565b8114610ca457600080fd5b50565b600081359050610cb681610c90565b92915050565b600060208284031215610cd257610cd1610c81565b5b6000610ce084828501610ca7565b91505092915050565b600081519050919050565b600082825260208201905092915050565b60005b83811015610d23578082015181840152602081019050610d08565b60008484015250505050565b6000601f19601f8301169050919050565b6000610d4b82610ce9565b610d558185610cf4565b9350610d65818560208601610d05565b610d6e81610d2f565b840191505092915050565b60006020820190508181036000830152610d938184610d40565b905092915050565b610da481610c86565b82525050565b60006060820190508181036000830152610dc48186610d40565b90508181036020830152610dd88185610d40565b9050610de76040830184610d9b565b949350505050565b6000602082019050610e046000830184610d9b565b92915050565b6000608082019050610e1f6000830187610d9b565b8181036020830152610e318186610d40565b90508181036040830152610e458185610d40565b9050610e546060830184610d9b565b95945050505050565b600073ffffffffffffffffffffffffffffffffffffffff82169050919050565b6000610e8882610e5d565b9050919050565b610e9881610e7d565b8114610ea357600080fd5b50565b600081359050610eb581610e8f565b92915050565b600060208284031215610ed157610ed0610c81565b5b6000610edf84828501610ea6565b91505092915050565b6000606082019050610efd6000830186610d9b565b8181036020830152610f0f8185610d40565b9050610f1e6040830184610d9b565b949350505050565b60008115159050919050565b610f3b81610f26565b82525050565b6000602082019050610f566000830184610f32565b92915050565b7f416c726561647920766f74656400000000000000000000000000000000000000600082015250565b6000610f92600d83610cf4565b9150610f9d82610f5c565b602082019050919050565b60006020820190508181036000830152610fc181610f85565b9050919050565b7f496e76616c69642063616e646964617465000000000000000000000000000000600082015250565b6000610ffe601183610cf4565b915061100982610fc8565b602082019050919050565b6000602082019050818103600083015261102d81610ff1565b9050919050565b7f4e487b7100000000000000000000000000000000000000000000000000000000600052601160045260246000fd5b600061106e82610c86565b91507fffffffffffffffffffffffffffffffffffffffffffffffffffffffffffffffff82036110a05761109f611034565b5b600182019050919050565b7f4e487b7100000000000000000000000000000000000000000000000000000000600052602260045260246000fd5b600060028204905060018216806110f257607f821691505b602082108103611105576111046110ab565b5b50919050565b7f496e76616c696420616464726573730000000000000000000000000000000000600082015250565b6000611141600f83610cf4565b915061114c8261110b565b602082019050919050565b6000602082019050818103600083015261117081611134565b9050919050565b7f4e6f2063616e6469646174657320617661696c61626c65000000000000000000600082015250565b60006111ad601783610cf4565b91506111b882611177565b602082019050919050565b600060208201905081810360008301526111dc816111a0565b905091905056fea2646970667358221220a30e9c411dc613b49842229580955fade28075721c109504401eed640422552964736f6c63430008130033a2646970667358221220f0d148e3539801f72ed25aa2fb56a656e0d3a51327e7c2d8bd79cb055288a7c764736f6c63430008130033",
  "devdoc": {
    "kind": "dev",
    "methods": {},
    "version": 1
  },
  "userdoc": {
    "kind": "user",
    "methods": {},
    "version": 1
  },
  "storageLayout": {
    "storage": [
      {
        "astId": 5,
        "contract": "contracts/MainContract.sol:MainContract",
        "label": "votingId",
        "offset": 0,
        "slot": "0",
        "type": "t_uint256"
      },
      {
        "astId": 9,
        "contract": "contracts/MainContract.sol:MainContract",
        "label": "Votings",
        "offset": 0,
        "slot": "1",
        "type": "t_mapping(t_uint256,t_address)"
      }
    ],
    "types": {
      "t_address": {
        "encoding": "inplace",
        "label": "address",
        "numberOfBytes": "20"
      },
      "t_mapping(t_uint256,t_address)": {
        "encoding": "mapping",
        "key": "t_uint256",
        "label": "mapping(uint256 => address)",
        "numberOfBytes": "32",
        "value": "t_address"
      },
      "t_uint256": {
        "encoding": "inplace",
        "label": "uint256",
        "numberOfBytes": "32"
      }
    }
  }
}